S019000062616C616E63655F626F745F73746172742E7372656314
S11300008AC00000B9C00000B7C00000B5C000003D
S1130010B3C00000B1C00000AFC00000ADC000001C
S1130020ABC00000A9C00000A7C00000FEC20000D1
S1130030A3C00000A1C000009FC000009DC000003C
S11300409BC0000099C0000097C0000095C000004C
S113005093C0000011C300008FC000008DC00000D9
S11300608BC000000C94490D0C947F0D85C00000DA
S113007083C0000081C000007FC000007DC000007C
S11300807BC0000079C0000077C0000075C000008C
S11300900C94D50D0C940B0E6FC000006DC00000C5
S11300A06BC0000069C0000067C0000065C00000AC
S11300B063C0000061C000005FC000005DC00000BC
S11300C05BC0000059C0000057C0000055C00000CC
S11300D053C0000051C000004FC000004DC00000DC
S11300E04BC00000084AD73B3BCE016E84BCBFFD29
S11300F0C12F3D6C74319ABD56833DDA3D00C77FF4
S113010011BED9E4BB4C3E916BAAAABE000000808C
S11301103F00A80D340E11241FBECFEFD1E2DEBF85
S1130120CDBF00E00CBF12E0A0E0B2E0E0E7FDE1EB
S113013000E00BBF02C007900D92A832B107D9F7B7
S113014023E0A8E2B2E001C01D92A73EB207E1F7A6
S113015010E0CBE8D0E000E006C021970109802F31
S1130160FE010E94AE0EC938D10780E00807A9F746
S11301700E9435090C94B60E43CF4AE06CE286EA3D
S1130180CDD026E686EE90E0215080409040E1F705
S113019048E06DE286EAC2D026E686EE90E0215081
S11301A080409040E1F740E061E386EAB7D026E67C
S11301B086EE90E0215080409040E1F70895CF937F
S11301C0DF931F921F92CDB7DEB7AE014F5F5F4F33
S11301D062E386EAE3D0AE014E5F5F4F63E386EAF3
S11301E0DDD089816A81062E000C770B762F662775
S11301F0682B072E000C880B990B0E94EF0A24E24F
S113020037E94FE75BE30E94CF0B0F900F90DF912C
S1130210CF910895CF93DF931F921F92CDB7DEB78E
S1130220AE014F5F5F4F66E386EAB8D0AE014E5F22
S11302305F4F67E386EAB2D089816A81062E000C9B
S1130240770B762F6627682B072E000C880B990BEB
S11302500E94EF0A24E237E94FE75BE30E94CF0BE9
S11302600F900F90DF91CF9108954FE060E282EDFF
S113027055D026E686EE90E0215080409040E1F78C
S11302800895CF93DF931F921F92CDB7DEB7AE01CF
S11302904F5F5F4F6AE282ED81D0AE014E5F5F4FE8
S11302A06BE282ED7BD089816A81062E000C770B8C
S11302B0762F6627682B072E000C880B990B0E945B
S11302C0EF0A29E23CE54FE05CE30E94CF0B0F907C
S11302D00F90DF91CF9108951092B900ECEBF0E00C
S11302E0108284EC80838AE08093B8000895ECEB5C
S11302F0F0E08081806680830895ECEBF0E08081FB
S11303008068808308958091BC0087FFFCCF0895A6
S1130310ECEBF0E080818061808308950F931F935C
S1130320CF93DF931F92CDB7DEB7162F042F8983A7
S1130330DEDFE9DF9091B900987F8981983029F553
S11303408093BB008091BC008F7D8093BC00D5DF7F
S1130350DADF8091B900887F8831C9F41093BB003B
S1130360CCDFD1DF8091B900887F883211F08CEF27
S11303700FC00093BB00C1DFC6DF8091B900887F46
S11303808832A9F7C5DF80E003C089EF01C08AEF96
S11303900F90DF91CF911F910F9108950F931F93A9
S11303A0CF93DF93C82FD62F8A01A1DFACDF8091D2
S11303B0B900887F883009F040C0C093BB008091A9
S11303C0BC008F7D8093BC0098DF9DDF8091B900D5
S11303D0887F8831A1F5D093BB008FDF94DF8091B3
S11303E0B900887F883269F582DF8DDF8091B9009A
S11303F0887F803141F5C160C093BB008091BC000F
S11304008F7D8093BC0079DF7EDF8091B900887F87
S11304108034D9F48091BC008F7B8093BC006DDF65
S113042072DF8091B900887F883589F48091BB00A0
S1130430F80180836DDF80E00BC089EF09C08AEF8B
S113044007C08CEF05C08EEF03C08BEF01C08DEFAA
S1130450DF91CF911F910F910895E9ECF0E01082A4
S11304608FE58093CC001092CD0086E08093CA0083
S113047088E180830895E1E0F1E080818E6D8083DE
S1130480E2E0F1E0808181728083E7E0F1E0808145
S1130490807F8083E8E0F1E080818F60808308952D
S11304A0F89484E0809368008FE080936D00E6E028
S11304B0F1E0808183708093A80280818C7090E049
S11304C095958795959587958093A7027894089537
S11304D0F89482E084BD94E095BD80936E0016BCD0
S11304E089E387BD78940895F894A1EAB0E01C925A
S11304F08FEF8093A50091E09093A400EBEAF0E0E5
S113050010828093AA0099EA9093A0009BE09C93A8
S113051010828093A80078940895E2E0F1E080814D
S1130520897380830895809A889A0895F894FBDFEC
S1130530A2DFCEDFD9DFB4DF26E040E855E260E099
S113054070E08DEA92E00E94EB0C87DFC5DE15DED9
S11305508CDE789408958091A802880F880F809388
S1130560A802E6E0F1E080819091A8028370892BD3
S11305708093A8028091A8028F708093A802809132
S1130580A702880F880F8093A70280812091A70279
S11305908C7090E09595879595958795822B80939F
S11305A0A7028091A7028F708093A702E091A8020E
S11305B040917302509174026091750270917602B9
S11305C0F0E0E95FFD4F8081082E000C990BAA0B27
S11305D0BB0B840F951FA61FB71F809373029093C4
S11305E07402A0937502B0937602E091A702409141
S11305F06B0250916C0260916D0270916E02F0E09A
S1130600E95FFD4F8081082E000C990BAA0BBB0BF0
S1130610840F951FA61FB71F80936B0290936C02E3
S1130620A0936D02B0936E0208951F920F920FB6BD
S11306300F9211240BB60F922F933F934F935F9316
S11306406F937F938F939F93AF93BF93EF93FF9396
S113065082DFFF91EF91BF91AF919F918F917F9135
S11306606F915F914F913F912F910F900BBE0F901F
S11306700FBE0F901F9018951F920F920FB60F92F6
S113068011248F939F93AF93BF938091A90290916C
S1130690AA02A091AB02B091AC020196A11DB11DBA
S11306A08093A9029093AA02A093AB02B093AC02E8
S11306B0BF91AF919F918F910F900FBE0F901F909C
S11306C018952FB7F8946091A9027091AA028091AD
S11306D0AB029091AC022FBF08958F929F92AF927C
S11306E0BF92CF92DF92EF92FF92CF93DF9300D02D
S11306F01F92CDB7DEB78EDD9B01AC0169833A83CF
S11307004B835C835CDD29813A814B815C8175D6A6
S11307104B015C01B6DD2DEC3CEC4CE45DE30E9446
S1130720CF0B2091A3023091A4024091A5025091D5
S1130730A602F0D523E333E343E75FE30E94CF0B44
S11307406B017C0126EF38E245E652ECC501B401A9
S11307500E94CF0B2DEC3CEC4CE45DE30E94CF0BEC
S11307609B01AC01C701B601D5D56093A302709378
S1130770A4028093A5029093A6020F900F900F906D
S11307800F90DF91CF91FF90EF90DF90CF90BF90CB
S1130790AF909F908F90089597FD0BC0840F951F85
S11307A020910201206420930201209102012F77FD
S11307B00CC09A01281B390BC90120910201206841
S11307C020930201209102012F7B209302018F3F8D
S11307D0910519F014F08FEF90E08093AA0077FD53
S11307E00BC0460F571F8091020182608093020163
S11307F0809102018B7F0AC0461B570B8091020136
S1130800846080930201809102018D7F80930201B4
S11308104F3F510519F014F04FEF50E04093A800FA
S113082008958F929F92AF92BF92CF92DF92EF92F0
S1130830FF920F931F93CF93DF93EC016A017B0127
S113084048015901A9019801688179818A819B81B4
S11308509BD7181624F488829982AA82BB82A701A6
S11308609601688179818A819B811AD687FF04C0A9
S1130870C882D982EA82FB82DF91CF911F910F91C6
S1130880FF90EF90DF90CF90BF90AF909F908F90AC
S113089008954F925F926F927F928F929F92AF9240
S11308A0BF92CF92DF92EF92FF920F931F93CF9359
S11308B0DF93CDB7DEB72C970FB6F894DEBF0FBE2B
S11308C0CDBF8090A3029090A402A090A502B09006
S11308D0A60220917B0230917C0240917D025091CE
S11308E07E02C501B40115D56B017C0160939F02A2
S11308F07093A0028093A1029093A20220917702A8
S1130900309178024091790250917A02C501B40184
S113091000D52B013C0160939B0270939C02809351
S11309209D0290939E0220917F023091800240911B
S1130930810250918202C501B401EBD460938F020D
S113094070939002809391029093920260938B0231
S113095070938C0280938D0290938E02C0928702D2
S1130960D0928802E0928902F0928A024092830235
S113097050928402609285027092860280927F0275
S113098090928002A0928102B0928202609106024B
S113099070E080E090E023D64B015C01A701960152
S11309A0FED669877A878B879C87A3019201C5014C
S11309B0B401F5D64B015C016091050270E080E062
S11309C090E00DD620E030E040E251E46DD5A7017F
S11309D09601E5D69B01AC01609197027091980253
S11309E08091990290919A0295D4609397027093A2
S11309F098028093990290939A0200E010E02AE70B
S1130A0033E440E050E06AE773EC87E992E009DF01
S1130A106091050270E080E090E0E1D520E030E0F4
S1130A2040E251E441D520919B0230919C024091D7
S1130A309D0250919E02B3D69B01AC01609193023A
S1130A4070919402809195029091960263D4609380
S1130A50930270939402809395029093960200E01F
S1130A6010E02AE733E440E050E06AE773EC83E9FE
S1130A7092E0D7DE6091040270E080E090E0AFD5B0
S1130A806B017C0120918F02309190024091910280
S1130A905091920284D66D837E838F8398872091B0
S1130AA08B0230918C0240918D0250918E02C701CD
S1130AB0B60175D669837A838B839C8300E010E04A
S1130AC026E133E440E050E066E173ECCE010596A4
S1130AD0A8DE00E010E026E133E440E050E066E107
S1130AE073ECCE0101969DDEC0909702D0909802DF
S1130AF0E0909902F0909A0280910302082F10E08E
S1130B00A701960169857A858B859C8503D42D81FF
S1130B103E814F815885FED32FD52B013C01A7017F
S1130B209601C501B401F6D329813A814B815C81D8
S1130B30F1D322D5DC01CB01A801B2012DDE2C9624
S1130B400FB6F894DEBF0FBECDBFDF91CF911F91DA
S1130B500F91FF90EF90DF90CF90BF90AF909F9058
S1130B608F907F906F905F904F9008954F925F9217
S1130B706F927F928F929F92AF92BF92CF92DF92A9
S1130B80EF92FF920F931F93CF93DF93CDB7DEB70E
S1130B9060970FB6F894DEBF0FBECDBF809173028D
S1130BA090917402A0917502B0917602C0906F0288
S1130BB0D0907002E0907102F0907202BC01CD01FD
S1130BC06C197D098E099F090AD52B013C0160939C
S1130BD0630270936402809365029093660280912D
S1130BE06B0290916C02A0916D02B0916E02C09064
S1130BF06702D0906802E0906902F0906A02BC013A
S1130C00CD016C197D098E099F09E9D46B017C0122
S1130C1060935F027093600280936102909362021A
S1130C2060913D02062E000C770B880B990BD7D4EC
S1130C304B015C0160913E02062E000C770B880B81
S1130C40990BCDD469837A838B839C83A50194010A
S1130C50C301B2015ED329813A814B815C815AD3AD
S1130C602B013C016093530270935402809355020C
S1130C7090935602A5019401C701B6014AD3298174
S1130C803A814B815C8145D36B017C0160934F02B7
S1130C907093500280935102909352028091020209
S1130CA0682F70E080E090E09AD44B015C01A301CE
S1130CB0920175D59B01AC0160914302709144028D
S1130CC0809145029091460225D36093430270932C
S1130CD044028093450290934602A7019601C50100
S1130CE0B4015DD59B01AC0160913F02709140025B
S1130CF080914102909142020DD360933F02709320
S1130D004002809341029093420200E010E523E404
S1130D1037E440E050E46CE977EC83E492E081DD71
S1130D2000E010E523E437E440E050E46CE977ECBC
S1130D308FE392E076DD8091380290913902A091A0
S1130D403A02B0913B0289839A83AB83BC8360915E
S1130D50010270E080E090E042D44B015C0180919C
S1130D60530290915402A0915502B09156028D8382
S1130D709E83AF83B88760913C0270E080E090E08E
S1130D802ED46B017C018091630290916402A09146
S1130D906502B091660289879A87AB87BC8720E099
S1130DA030E44CE955E4609143027091440280912F
S1130DB045029091460278D39B01AC0169817A8106
S1130DC08B819C81A7D22B013C012D813E814F81D7
S1130DD05885C501B401E3D420E030E04AE754E487
S1130DE063D39B01AC01C301B20194D22B013C013A
S1130DF020915B0230915C0240915D0250915E0251
S1130E0069857A858B859C8584D29B01AC01C70159
S1130E10B601C5D420E030E04AE754E445D39B0151
S1130E20AC01C301B20176D260937B0270937C0261
S1130E3080937D0290937E0280914F0290915002A4
S1130E40A0915102B09152028D879E87AF87B88BD3
S1130E5040905F0250906002609061027090620264
S1130E6020E030E44CE955E460913F027091400287
S1130E70809141029091420217D39B01AC01698198
S1130E807A818B819C8146D269837A838B839C830C
S1130E902D853E854F855889C501B40180D420E055
S1130EA030E04AE754E400D39B01AC0169817A81C4
S1130EB08B819C812FD24B015C0120915702309190
S1130EC058024091590250915A02C301B20121D2F1
S1130ED09B01AC01C701B60162D420E030E04AE7CF
S1130EE054E4E2D29B01AC01C501B40113D2609376
S1130EF07702709378028093790290937A028091BA
S1130F00730290917402A0917502B091760280935D
S1130F106F0290937002A0937102B0937202809159
S1130F206B0290916C02A0916D02B0916E0280935D
S1130F30670290936802A0936902B0936A028D815C
S1130F409E81AF81B88580934B0290934C02A0930D
S1130F504D02B0934E028D859E85AF85B8898093EE
S1130F60470290934802A0934902B0934A028985AC
S1130F709A85AB85BC8580935B0290935C02A093B9
S1130F805D02B0935E024092570250925802609202
S1130F90590270925A0260960FB6F894DEBF0FBEE3
S1130FA0CDBFDF91CF911F910F91FF90EF90DF9014
S1130FB0CF90BF90AF909F908F907F906F905F90F5
S1130FC04F90089588980895889A089510929702EA
S1130FD0109298021092990210929A02109293021F
S1130FE01092940210929502109296028091A3029C
S1130FF09091A402A091A502B091A602809343020D
S113100090934402A0934502B093460280933F021A
S113101090934002A0934102B093420210925B026B
S113102010925C0210925D0210925E0210925702BE
S1131030109258021092590210925A0210926F02A2
S11310401092700210927102109272021092670252
S1131050109268021092690210926A02109273024E
S113106010927402109275021092760210926B0222
S113107010926C0210926D0210926E0280937F02A5
S113108090938002A0938102B093820208958F927C
S11310909F92AF92BF92CF92DF92EF92FF920F9303
S11310A01F93CF93DF938DEA92E0F9D38E379105A6
S11310B0D1F789E0E82EF12C8DEA92E0F0D381E0BB
S11310C0E81AF108C9F78DEA92E0E9D3F82E8DEA1F
S11310D092E0E5D39CE0F912B4C08111B2C08DEA6C
S11310E092E0DDD3F82E80910002F2FE07C0813039
S11310F009F46ADF81E08093000205C0811101C018
S113110061DF10920002F3FE05C08AE180930102C0
S113111085E304C085E38093010280E180930202A9
S11311208DEA92E0BCD3F82E8DEA92E0B8D31F2D5D
S113113000E0B801682B072E000C880B990B4FD2E6
S113114026EB3BED4EEE5DE32AD328EB3EE940E887
S113115052E4DFD06B017C01609328027093290272
S113116080932A0290932B0280902C0290902D025F
S1131170A0902E02B0902F02A501940191D181116B
S113118005C0C501B401F8D160933D02C0922C02A0
S1131190D0922D02E0922E02F0922F028DEA92E07C
S11311A07ED3182F8DEA92E07AD3D12F90E0C92F05
S11311B0BE01682B072E000C880B990B10D226EB6E
S11311C03BED4EEE5DE3EBD228EB3EE942E852E420
S11311D0A0D020E030E040E05FE3E1D26B017C018D
S11311E06093300270933102809332029093330201
S11311F09B01AC01609134027091350280913602FA
S1131200909137024DD1811105C0C701B601B4D107
S113121060933E02C0923402D0923502E0923602CC
S1131220F09237028DEA92E0DF91CF911F910F91F6
S1131230FF90EF90DF90CF90BF90AF909F908F90F2
S11312402EC3C7E0D0E08DEA92E029D32197D9F7E5
S1131250DF91CF911F910F91FF90EF90DF90CF908E
S1131260BF90AF909F908F90089560D9F6D855D9CC
S113127026E040E855E260E070E08AE493E0ABD316
S1131280412C512C3201812C912C5401C4E019DAE7
S11312906B017C01DC01CB0188199909AA09BB09FE
S11312A0C297A105B105F4F01092680016DAC09354
S11312B068008091A3029091A402A091A502B0912C
S11312C0A602BC01CD019F7720E030E044E352E464
S11312D05BD218161CF421D979DE02C047DCD9DAB6
S11312E046015701D701C60184199509A609B70912
S11312F080359105A105B1052CF473016201260125
S11313003701C5CF8DEA92E0B0D24297C4F3BFDE75
S1131310F6CF5058BB27AA270ED0FCC1EDD130F030
S1131320F2D120F031F49F3F11F41EF4BDC10EF44C
S1131330E095E7FBB3C1E92FFED180F3BA1762074A
S113134073078407950718F071F49EF516C20EF41E
S1131350E0950B2EBA2FA02D0B01B90190010C01C1
S1131360CA01A0011124FF27591B99F0593F50F4D9
S1131370503E68F11A16F040A22F232F342F442731
S1131380585FF3CF469537952795A795F040539529
S1131390C9F77EF41F16BA0B620B730B840BBAF0F9
S11313A09150A1F0FF0FBB1F661F771F881FC2F764
S11313B00EC0BA0F621F731F841F48F48795779578
S11313C06795B795F7959E3F08F0B3CF9395880F2F
S11313D008F09927EE0F9795879508958DD158F0C9
S11313E080E891E009F49EEF8ED128F040E851E0C6
S11313F059F45EEF09C058C1C0C1E92FE0789BD110
S113140068F3092E052AC1F3261737074807590739
S113141038F00E2E07F8E02569F0E025E0640AC0F4
S1131420EF6307F8009407FADB01B9019D01DC01C1
S1131430CA01AD01EF9347D06DD10AD05F91552316
S113144031F02BED3FE049E450FD49EC63CF0895C2
S1131450DF93DD27B92FBF7740E85FE31616170641
S113146048075B0710F4D92F93D19F938F937F93F1
S11314706F93F8D1E4EEF0E01AD14CD12F913F9163
S11314804F915F9198D1DD2349F09058A2EA2AED5B
S11314903FE049EC5FE3D0785D274DDFDF913AC14F
S11314A0D9D008F481E008950CD034C12CD140F097
S11314B023D130F021F45F3F19F0F0C051115EC127
S11314C0F3C039D198F39923C9F35523B1F3951B8C
S11314D0550BBB27AA2762177307840738F09F5F51
S11314E05F4F220F331F441FAA1FA9F333D00E2EC0
S11314F03AF0E0E830D091505040E695001CCAF72D
S113150029D0FE2F27D0660F771F881FBB1F2617F1
S113151037074807AB07B0E809F0BB0B802DBF01C4
S1131520FF2793585F4F2AF09E3F510568F0B6C0DD
S113153025C15F3FECF3983EDCF38695779567957C
S1131540B795F7959F5FC9F7880F911D9695879575
S113155097F90895E1E0660F771F881FBB1F621794
S113156073078407BA0720F0621B730B840BBA0B52
S1131570EE1F88F7E095089504D06894B111FEC079
S11315800895E1D088F09F5790F0B92F9927B7516B
S1131590A0F0D1F0660F771F881F991F1AF0BA9533
S11315A0C9F712C0B13081F0E8D0B1E00895E5C0C8
S11315B0672F782F8827B85F39F0B93FCCF3869529
S11315C077956795B395D9F73EF490958095709586
S11315D061957F4F8F4F9F4F0895E89409C097FB03
S11315E03EF490958095709561957F4F8F4F9F4FF6
S11315F09923A9F0F92F96E9BB279395F69587953A
S113160077956795B795F111F8CFFAF4BB0F11F4FC
S113161060FF1BC06F5F7F4F8F4F9F4F16C08823A3
S113162011F096E911C0772321F09EE8872F762FD9
S113163005C0662371F096E8862F70E060E02AF01A
S11316409A95660F771F881FDAF7880F9695879506
S113165097F90895990F0008550FAA0BE0E8FEEFDB
S113166016161706E807F907C0F012161306E40762
S1131670F50798F0621B730B840B950B39F40A265B
S113168061F0232B242B252B21F408950A2609F439
S1131690A140A6958FEF811D811D089597F99F673D
S11316A080E870E060E008959FEF80EC0895DF9398
S11316B0CF931F930F93FF92EF92DF927B018C01E4
S11316C0689405C0DA2EEF0176D0FE01E894A59166
S11316D02591359145915591AEF3EF012CDEFE0134
S11316E09701A801DA9479F7DF90EF90FF900F91BA
S11316F01F91CF91DF91089500240A9416161706BE
S113170018060906089500240A94121613061406EE
S113171005060895092E0394000C11F4882352F051
S1131720BB0F40F4BF2B11F460FF04C06F5F7F4F09
S11317308F4F9F4F089557FD9058440F551F59F0F0
S11317405F3F71F04795880F97FB991F61F09F3FAA
S113175079F087950895121613061406551FF2CFD3
S11317604695F1DF08C0161617061806991FF1CF23
S113177086957105610508940895E894BB2766274A
S11317807727CB0197F9089565DF08F48FEF089563
S11317909B01AC0160E070E080E89FE385CE0BD054
S11317A0B9CFAADF28F0AFDF18F0952309F076CF80
S11317B07BCF1124E3CFBFDFA0F3959FD1F3950F27
S11317C050E0551F629FF001729FBB27F00DB11DC1
S11317D0639FAA27F00DB11DAA1F649F6627B00D51
S11317E0A11D661F829F2227B00DA11D621F739F3A
S11317F0B00DA11D621F839FA00D611D221F749F48
S11318003327A00D611D231F849F600D211D822F8E
S1131810762F6A2F11249F5750408AF0E1F08823D5
S11318204AF0EE0FFF1FBB1F661F771F881F9150E2
S11318305040A9F79E3F510570F030CF9FCF5F3FD6
S1131840ECF3983EDCF3869577956795B795F79515
S1131850E7959F5FC1F7FE2B880F911D969587959D
S113186097F908959B01AC019ACFFC01918D228DCB
S1131870892F90E0805C9F4F821B91098F73992779
S11318800895FC01918D828D981731F0828DE80FB7
S1131890F11D858D90E008958FEF9FEF0895FC0171
S11318A0918D828D981761F0828DDF01A80FB11D93
S11318B05D968C91928D9F5F9F73928F90E00895B7
S11318C08FEF9FEF0895FC01848DDF01A80FB11DF8
S11318D0A35ABF4F2C91848D90E001968F73992762
S11318E0848FA689B7892C93A089B1898C9180644F
S11318F08C93938D848D981306C00288F389E02D10
S113190080818F7D80830895CF93DF93EC01888D50
S11319108823C1F0EA89FB89808185FD05C0A889F7
S1131920B9898C9186FD0EC00FB607FCF5CF808176
S113193085FFF2CFA889B9898C9185FFEDCFCE01BF
S1131940C2DFE8CFDF91CF910895EF92FF920F931A
S11319501F93CF93DF93EC0181E0888F9B8D8C8D57
S1131960981305C0E889F989808185FD23C0F62E86
S11319700B8D10E00F5F1F4F0F731127E02E8C8D1E
S1131980E8120BC00FB607FCFACFE889F989808109
S113199085FFF5CFCE0197DFF2CF8B8DFE01E80FE7
S11319A0F11DE35AFF4FF0820B8FEA89FB89808196
S11319B0806207C0EE89FF896083E889F9898081A4
S11319C08064808381E090E0DF91CF911F910F913B
S11319D0FF90EF900895CF92DF92EF92FF921F93C2
S11319E0CF93DF93EC016A017B01122F60E070E476
S11319F088E390E0A70196018FD1DA01C90101972C
S1131A00A109B109B695A79597958795AC01E88981
S1131A10F98982E08083411580E15807A0F0E889C4
S1131A20F989108260E070E28CE190E0A7019601F0
S1131A3073D1BA01A901415051096109710976951F
S1131A40679557954795EC85FD855083EE85FF8511
S1131A504083188EEC89FD891083EA89FB89808193
S1131A6080618083EA89FB89808188608083EA8938
S1131A70FB89808180688083EA89FB8980818F7DEE
S1131A808083DF91CF911F91FF90EF90DF90CF90F3
S1131A9008951F920F920FB60F9211240BB60F9256
S1131AA02F938F939F93EF93FF93E091BD02F09157
S1131AB0BE028081E091C302F091C40282FD12C093
S1131AC090818091C6028F5F8F732091C702821725
S1131AD051F0E091C602F0E0E355FD4F958F8093FD
S1131AE0C60201C08081FF91EF919F918F912F9148
S1131AF00F900BBE0F900FBE0F901F9018951F9262
S1131B000F920FB60F9211240BB60F922F933F939F
S1131B104F935F936F937F938F939F93AF93BF93F1
S1131B20EF93FF938DEA92E0CEDEFF91EF91BF91A8
S1131B30AF919F918F917F916F915F914F913F9161
S1131B402F910F900BBE0F900FBE0F901F90189502
S1131B50EDEAF2E01382128288EE93E0A0E0B0E0B6
S1131B6084839583A683B7838BE192E091838083FA
S1131B7085EC90E09587848784EC90E0978786874E
S1131B8080EC90E0918B808B81EC90E0938B828B46
S1131B9082EC90E0958B848B86EC90E0978B868B1F
S1131BA0118E128E138E148E08951F920F920FB6FB
S1131BB00F9211240BB60F922F938F939F93EF9351
S1131BC0FF93E0915A03F0915B038081E0916003FD
S1131BD0F091610382FD12C09081809163038F5F55
S1131BE08F7320916403821751F0E0916303F0E056
S1131BF0E65BFC4F958F8093630301C08081FF9166
S1131C00EF919F918F912F910F900BBE0F900FBE6C
S1131C100F901F9018951F920F920FB60F921124D8
S1131C200BB60F922F933F934F935F936F937F93D2
S1131C308F939F93AF93BF93EF93FF938AE493E0C3
S1131C4042DEFF91EF91BF91AF919F918F917F9170
S1131C506F915F914F913F912F910F900BBE0F9019
S1131C600FBE0F901F901895EAE4F3E013821282DE
S1131C7088EE93E0A0E0B0E084839583A683B783E5
S1131C808BE192E0918380838DEC90E0958784874B
S1131C908CEC90E09787868788EC90E0918B808B22
S1131CA089EC90E0938B828B8AEC90E0958B848B0B
S1131CB08EEC90E0978B868B118E128E138E148E81
S1131CC00895CF92DF92EF92FF920F931F93CF93D9
S1131CD0DF936C017A018B01C0E0D0E0CE15DF0503
S1131CE089F0D8016D918D01D601ED91FC9101909F
S1131CF0F081E02DC6011995892B11F47E0102C0F3
S1131D002196ECCFC701DF91CF911F910F91FF90E6
S1131D10EF90DF90CF900895A1E21A2EAA1BBB1B6F
S1131D20FD010DC0AA1FBB1FEE1FFF1FA217B307A3
S1131D30E407F50720F0A21BB30BE40BF50B661FB9
S1131D40771F881F991F1A9469F76095709580957D
S1131D5090959B01AC01BD01CF010895EE0FFF1FCB
S1131D60881F8BBF0790F691E02D1994F894FFCF4C
S1131D7001351A2016400A00FF0100010000FFFF90
S1131D800000010001FF0000000000A50C610E35F9
S10B1D900C4F0C410C840C0003
S9030000FC
